:040000006F10405CE1
:1000040000000000000000008004000082040000E2
:1000140000000000C2150000000000000000000005
:10002400C2150000C215000000000000000000001E
:10003400C215000000000000C2150000000000000E
:10004400C2150000C2150000C2150000C215000050
:10005400C2150000C2150000C2150000C215000040
:10006400C2150000C2150000C2150000E411000012
:10007400C2150000C2150000C2150000C215000020
:10008400C2150000C2150000C2150000C215000010
:10009400C2150000C2150000C2150000C215000000
:1000A400C2150000C2150000C2150000C2150000F0
:1000B400C2150000C2150000C2150000C2150000E0
:1000C400C2150000C2150000C2150000C2150000D0
:1000D400C2150000C2150000C2150000C2150000C0
:1000E400C2150000C2150000C2150000C2150000B0
:1000F400C2150000C2150000C2150000C2150000A0
:1001040000000000C2150000C2150000C215000066
:10011400C2150000C2150000C2150000C21500007F
:10012400C2150000C2150000C2150000C21500006F
:10013400C2150000C2150000C2150000C21500005F
:10014400C2150000C2150000C2150000C21500004F
:10015400C21500000E080000C2150000C215000000
:10016400C2150000C2150000C2150000C21500002F
:10017400C2150000C2150000C2150000C21500001F
:10018400C2150000C2150000C2150000C21500000F
:10019400C2150000C2150000C2150000C2150000FF
:1001A400000000000000000000000000000000004B
:0C01B4000000000000000000000000003F
:1001C000397101436EC619A0397141536AC866CAB4
:1001D00062CC5ECE19A0397101535AD056D252D496
:1001E0004ED64AD826DA22DC06DE3301614082820E
:1001F00041114AC026C222C406C68282B24D4101C4
:10020000024D924C224CB24B4101024B924A224A7F
:10021000B2494101024992442244B24041018280E4
:100220003D432A876373C3029377F700BDEFADE5C3
:10023000937606FF3D8ABA960CC34CC30CC74CC7D5
:100240004107E36BD7FE11E28280B306C3408A0602
:100250009702000096966780A6002307B700A306C2
:10026000B7002306B700A305B7002305B700A30412
:10027000B7002304B700A303B7002303B700A3020A
:10028000B7002302B700A301B7002301B700A30002
:10029000B7002300B700828093F5F50F9396850091
:1002A000D58D93960501D58D61B79396270097025A
:1002B000000096968682E78086FA9680C1171D8F89
:1002C0003E96E374C3F8A5B7EFF29FF237240140DE
:1002D0005D7113050440EF10C037B734014013853A
:1002E0000480EF10003737050040EF10B0451306CB
:1002F0000002814508182D378545114502CA02CCF8
:1003000002CE02C402C62318010002D002D202D4D7
:1003100002D6EF103033854513050020EF109032E0
:10032000854513050040EF10F03185450545EF1078
:1003300050332165EF10B0164808EF1070153715CF
:1003400001408D474C080949130505803ECC02CE7B
:10035000231A2101EF10D0070818EF104039B70712
:1003600007003ED8B70706003EDE0C188547130588
:1003700004402302F10402DA02DC82C0EF10C03133
:10038000B7070E00138504800C183EDEEF10C03056
:1003900081460546854513050440EF10403B8146E4
:1003A0000546854513850480EF10603A2800EF105C
:1003B000D0699307F0052C00370500403EC602C403
:1003C00023080100EF1090460810EF107069C16714
:1003D000938707063ED00C109307000337050040B3
:1003E0002313F10223142103EF10505B85451305FD
:1003F0000440EF106031854513850480EF10C03054
:100400001305401FEF109077854513050440EF104A
:10041000803F138504808545EF10E03E8545130538
:100420000440EF10602F814513050440EF10203F7A
:10043000814513050440EF10803E13050440EF1082
:10044000C02E930404402685EF10C02E6DFD1305C9
:10045000044037240140EF10602E930404402685A9
:10046000EF10602E6DFD13050440EF10C03C239C7F
:10047000A180854537050040EF10B060616159BB30
:1004800001A0B707EFBE37E700E0938707083CC736
:1004900001A09387C1829823930600101377F70772
:1004A00098A3938741829A236397E60237370240E5
:1004B0008346674093F6C60F2303D74083466740C1
:1004C00093E626002303D7408347074093E70708B6
:1004D0002300F74082809A2393060020639FE60062
:1004E000373702408346674093F6C60F2303D74051
:1004F0008346674093E63600F1B79A2393060030AF
:100500006392E602B737024003C767401377C70F0D
:100510002383E740A38107400947A38DE74C238D40
:10052000E74C82809E2313070040631FF704373790
:100530000240834667409307074093F6C60F2303A4
:10054000D7408346674093E616002303D74083468F
:10055000074093E606082300D74037070400210729
:1005600098CBD84B1367F70FD8CB3707002013076A
:100570000700F8D3130750032392E70E130700FD7B
:100580002380E70E0947B8A78280EFF27FC60545B2
:10059000EF10F0190145EF1010140545EF1010127F
:1005A0000545EF10F0140545EF103016056585453B
:1005B00013050580EF103007B1B9B7370240370790
:1005C0002A00938707401307270598CB13070004D9
:1005D000239CE70813070020239EE7082392E70ADD
:1005E0002394E70A2396E70A2398E70A372700208F
:1005F0001307071AD8CF370700201307C717B726E6
:10060000002098D39386061E94D7B72600209386A1
:10061000065E94DBF8CF372700201307073EB8D7D4
:10062000372700201307077EB8DB239C070C0947F8
:10063000238DE70CA38D070CA38F070CA383070E54
:10064000A387070E239E070C238FE70C2394070E26
:100650002385E70E2398070E2389E70E37370020FE
:1006600081471307079EC1463306F70023000600A3
:100670008507E39BD7FE8280EFF29FB737340240B5
:1006800021C999472300F4402945EF10304F834793
:1006900004409304044093F7B70F2300F440C1478C
:1006A000A300F440930790022300F44093077002E4
:1006B0002301F4401937834704403707200093E7AC
:1006C00007012300F440B7E700E023A4E71099B640
:1006D00099472300F4402945EF10504A83470440CE
:1006E0003707200093F7B70F2300F440B7E700E087
:1006F00023A4E7180F100000D9BF9307F5FF13F8E4
:10070000F70F39476362071137370240832E0741DD
:10071000054EB31FAE0093FEFE0F33FFFE0185486A
:1007200063050F0EEFF2DFAC373900209308099E06
:10073000AA9803CF08001309099E8548137F1F005C
:1007400063190F06032887412E83B2841378F80FAC
:100750003378F8012A846307080841053315AE0091
:100760003375D50139E58A071305E74D3E950348F2
:1007700005001378F80FB9E213788800631D0802AA
:100780001307C745BA9723A067002299834709003A
:1007900037950010130565D393E717002A942300BB
:1007A000F9000A0406A03C20814893F7C70F3CA03B
:1007B0003CA0468585B413070742E9B78548E39A0C
:1007C000C6FF13788800631C08001307C745BA9753
:1007D0008843B70700203E95EF1050497DB71307B7
:1007E0000742F5B781EAB7970010938767D1AA97B8
:1007F0008A0751BF8548E39EC6FBB79700109387D1
:1008000067D1AA978A07E9B7854846858280011192
:1008100022CE3734024026CC4ACA4EC852C656C4ED
:100820005AC21304044038243C341377F70F9376EC
:1008300027006383063693F7F70F13F70703630266
:10084000071A93060002631CD70093F7F703930679
:1008500010026384D71263E5F6026388E706B737B0
:10086000024009472385E740938707407244E244EA
:100870005249C249324AA24A124B056173002030E4
:10088000130740026382E71213076002E399E7FC53
:100890008347240F93F7C70F93E727002309F40E2C
:1008A0008347240F93C787002309F40EB73700202E
:1008B0009387079EF8231377E70FF8A38347F40E77
:1008C00093F7C70FA307F40E59BF938761829E2346
:1008D00093846182C207C18381E7A147A30DF40C11
:1008E00083C7818293F70706BDE383C7218215473B
:1008F00093F7F70F6385E7061947639BE7069E208A
:100900001307F003130400046365F7008220420418
:10091000418013890183832909003725002022861D
:10092000CE851305051AEF1070349E20A29923205E
:100930003901818FC207C1839EA0B7370240239C33
:10094000874C03C7A74D13478700238DE74C83C708
:10095000C182E207E187E3D407F0253E09B703C768
:10096000A181B73702401377F70FA381E740C5B7DE
:10097000B7370240239C074CD9BF8347E40D93F758
:10098000C70F93E72700230FF40C8347E40D93C7A9
:100990008700230FF40CB73700209387079E983306
:1009A0001377E70F98B365BD8347A40E93F7C70F7E
:1009B00093E727002305F40E8347A40E93C787000F
:1009C0002305F40EB73700209387079ED8231377AB
:1009D000E70FD8A38347740E93F7C70FA303F40E52
:1009E000BDBD13F7F70385466303D70A2DC78D46B0
:1009F0006302D7129546E314D7E693F70704E38022
:100A000007E65A248347F40EB7260020420793C70F
:100A10008700A307F40E8347F40E37260020418396
:100A200093F7C70F93E72700A307F40E9386067E7C
:100A300081471306065E93950701C18163E4E514BF
:100A4000B73702402398E74E03C7274F1377C70FE6
:100A50002389E74E29B55A2493F707049316070113
:100A6000C182E38E07DE83C78182938761829A23E6
:100A7000158F420741839AA39E23C207C183E39047
:100A800007DE231C040CA147230DF40CC9BB93F70C
:100A90000704E38607DC8347F40D93C78700A30FA1
:100AA000F40CB72700201387C71714235224938709
:100AB000C71786064206BA964182D2A2142385063B
:100AC00093F6F60F14A31823C1466394E60023801F
:100AD00007009423370700201307C717A606BA9606
:100AE000373702402320D742B4232D46130707404F
:100AF000850693F6F60FB4A3B423E372D6D68346E5
:100B0000F70D93F6C60F93E62600A30FD70C054703
:100B1000B8B3B1B393F70704E38307D45A248347E8
:100B2000740EB7260020420793C78700A303F40E74
:100B30008347740E37260020418393F7C70F93E74E
:100B40002700A303F40E9386063E81471306061E74
:100B500093950701C18163EDE500B7370240239407
:100B6000E74E03C7A74E1377C70F2385E74EC5B9D6
:100B7000B305F6008C213385F600850793C5F5FF94
:100B80000CA1F9B7B305F6008C213385F600850773
:100B900093C5F5FF0CA145B5937707026380075411
:100BA000A947230DF40CB7240020A30DF40C1387E0
:100BB000041A1C23138681821CA21C336E23938685
:100BC00021829CA22A23938761828EA39385A1828E
:100BD0008AA14A23938541828AA10C2213896182CA
:100BE000138A818293F505061386041A9387A182DE
:100BF00013874182639D05289422AD4593F6F60F35
:100C000063E7D5288D658A0693850572AE96944272
:100C100082869A23994621837D171377F70F93894C
:100C2000018363EAE60C8D660A079386067536979C
:100C30001843028791671387878C83C7878C23A00B
:100C4000E90001440357090063F4E7002310F900A9
:100C5000835709001307F003930A00046367F70042
:100C6000835A0900C20A93DA0A0103AB09005686C7
:100C70001385041ADA85DA9AEF10407F23A0590110
:100C80009307F00F6315F41419A4B737024083C615
:100C900087408D8A0546938711821387E181639689
:100CA000C60294A39306002016A39C230547631352
:100CB000F70211671307C7883C3323A0E9003823E4
:100CC000A207BA97C207C183ADBF2380070093066E
:100CD0000004D9BF116713070785F9BF9E23054795
:100CE00093F7F70F6384E70299CB09476388E7021C
:100CF0000D47638DE70281471304F00FA1B71387F7
:100D0000018123A0E90083C7018125BF9167138773
:100D1000C78D23A0E90083C7C78D25B791671387C7
:100D2000C78E23A0E90083C7C78E21BF91671387B1
:100D3000C79023A0E90083C7C79021B791671387A5
:100D4000079023A0E90083C70790E5BD9387118230
:100D500098238546639DE6021167130707852033B4
:100D60003C23916522043E94370500201306E4FFDE
:100D70009385258513056508EF10406FB7070020A0
:100D80009387470823A0F900931704012DBF9C23E4
:100D900093F7F70FADF311671307C78820333C2390
:100DA000916522043E94370500201306E4FF9385E5
:100DB000E5881305A504EF10606BB7070020938743
:100DC0008704C9B79E2393F7F70F238DF1808347DC
:100DD0000A0003570900E207E18763D0072E930753
:100DE000000463E6E70083570900C207C183035785
:100DF00009001D8F420741832310E9003737024065
:100E0000231CF74CA147230DF74C49A883C7B18198
:100E10001CA2035709008547E3FBE7FA2310F900FA
:100E20007DB79E2393F7F70FA38DF1800547238E9F
:100E3000E18071BF83460A00FD8A91EE9E2305473B
:100E400093F7F70F6395E70493870182982313774D
:100E5000E70F98A3ADBF83460A000946FD8A639851
:100E6000C6029E2393F7F70F9DE31E23154693F7C3
:100E7000F70F6382C70637370240130707406364E2
:100E8000F60285466380D7048D466380D704B73762
:100E900002402D47238DE74CA38DE74CB737024026
:100EA00013070002C1B2130640086383C70213068A
:100EB00060086387C70213061008E39AC7FC230F74
:100EC000D70C31B7A30F070C19B7A303070E01B74F
:100ED0002305D70EEDBDB7370240A387074EC5BD2A
:100EE0002309D70EEDB583460A00FD8ABDE296239D
:100EF000054693F6F60F639EC600916783C7778514
:100F000093F70702C9D793870182982313671700C5
:100F100089B79E23894693F7F70FE39AD7F61E23E6
:100F2000930600106381F6021E2393060020638C53
:100F3000F6001E23930600306387F6001E23130776
:100F40000040E316F7E89387C182982313670708E8
:100F500009B783460A000946FD8AE39AC6E69E233E
:100F600093F7F70FE39507E61A239546B737024044
:100F70001377F70F6304D7069387074063EFE60004
:100F80008546630FD7028D46E313D7F003C7770E6C
:100F900013673700A383E70E1DBD9306400863085F
:100FA000D702930660086302D70493061008E31083
:100FB000D7EE03C7E70D13673700238FE70C01BD9A
:100FC00003C7F70D13673700A38FE70C09B503C7F5
:100FD000A70E136737002385E70ED5BB03C7F74E6F
:100FE00013673700A387E74EDDB303C7270F1367E7
:100FF00037002389E70EE1BB2300060019BD8347B4
:101000000A00231006008946FD8B639DD7081E2326
:10101000954693F7F70F638DD706373702401307CE
:10102000074063E2F60285466380D7048D466388F5
:10103000D7041304F00F035709008947E3F2E7C40C
:101040002310F90035B9930640086380D70493064E
:1010500060086386D70493061008E39CD7FC834797
:10106000E70D8D8B0D4739A88347F70D0D470144D8
:101070008D8BE392E7FC85471CA201446DBF0347BB
:10108000770E0D8BE39BE7FEFDB78347A70ED1BF1D
:10109000B73702409387074083C7F70ED9B7834716
:1010A000270FC1B783470A000144FD8BC9F783C7E7
:1010B0000182858BC9D314A2BDBF4207B737024056
:1010C00041839387074019E7239C070C2147238D11
:1010D000E70CE9B32147A38DE70CC9B39377170059
:1010E0008DC3A38D0180238D018023800182238EF7
:1010F0000180A3010400EFF04FCC85473CA46FF0C2
:10110000EFF69377470085CB91473CA42945EF1034
:10111000E026183493870182118B01CB9823136743
:10112000270098A39C236FF06FF498231377D70FB1
:1011300098A36FF0AFF338A46FF04FF3EFF24F8B3B
:1011400079711306C00281454800EFF06F8D854527
:101150000545EF00504D3704024013058400EF00B1
:1011600090004800EF00701A930700203ECEB7278A
:1011700001409387C7443EC28567938707803ED06E
:10118000B73700209387079F3EC4930700083ECCE3
:10119000930700103EC8930700023ED24C008D67B3
:1011A000130584003ED402CA02C602D6EF007012B4
:1011B0001305840005469145EF00501905461305B7
:1011C00084008945EF009018B7E700E03707000872
:1011D00023A0E710854513058400EF00F015456155
:1011E0006FF04F831145EF00701D19C5054711457C
:1011F000A38CE182EF00301D0945EF00301C19C5BA
:1012000005470945238CE182EF00F01B7300203075
:10121000EFE21FFE797185450945EF009044854551
:101220001145EF00304293070004FC82371501405E
:10123000E1473ECE4C088D47130505803ECC231B6D
:101240000100EF00F018B707002083A70713374706
:101250000F0013070724B3D7E702370400402C0020
:101260001305044023150100231701002318010072
:10127000FD177C84930730067C86EF00305BC167E6
:101280009387070602D23ED00C10E54713050440B1
:101290002313F10202D402D6EF003068854513050E
:1012A0000440EF00107E45616FE0DFF6EFE2DFF112
:1012B000912CEF10000A716513050520EF10600FE7
:1012C000EFF0AFAC0545EFF02FBB37072000B7E7D5
:1012D00000E023A4E7109D35EFE01FFF153FB7079F
:1012E000024094473734002037350000F99A94C7FC
:1012F00093060010D4C7B72601409386C64494CB0A
:101300009306049FD4CB94471305C57693E6160045
:1013100094C78C47D047EF10802037350000130565
:101320008579EF100031373A0000B7AA0700938A99
:101330000A12374B00001387C1831C4363E4FA0889
:1013400085071CC383C7C18193F7F70FEDD7938738
:1013500091839C230547938A9183631CF7029387AB
:1013600041838C4385058CC39307803EB3F7F50218
:1013700099E73745000013058583EF10401A814631
:10138000130600209305049F0545EFF00FB7238057
:101390000A00938A818383C70A000547E317F7F899
:1013A000138741831C43B735002081468507130608
:1013B0000020938505BF05451CC3EFF00FB42380C3
:1013C0000A00A5B79387918383C5C181942393872E
:1013D000818303A6418323200700982313058A7C79
:1013E000EF10E013B727014083A5C74413054B80D6
:1013F000EF10E012B7070240CC479043374500009A
:101400001305C581EF10A01135BFB71702409843EF
:10141000B706FFF041111367170098C3D84337068A
:101420000200758FD8C39843B706F7FEFD16758F77
:1014300098C39843B706FCFFFD16758F98C3D84331
:10144000B70601FFFD16758FD8C39843B70600ECA9
:10145000FD16758F98C33707FF0098C723A60702AC
:1014600002C402C69843C166558F98C3B71602409E
:1014700005679C42F18F3EC6A24785073EC4B2472E
:1014800081E7A247E397E7FEB71702409C43139713
:10149000E7006357070685473EC632478547631F07
:1014A000F704B7170240D843B706C1FFFD16D8C3EB
:1014B000D843D8C3D84313670740D8C3D843758FE0
:1014C000D8C3D843B7062900558FD8C39843B70669
:1014D0000001558F98C3984393166700E3DD06FE1D
:1014E000D843B7160240719BD8C3D843136727006F
:1014F000D8C32147DC42B18BE39EE7FE41018280E5
:1015000002C661BF371602405C4237070020914691
:10151000B18B130707136385D700A1466388D702F1
:10152000B7177A00938707201CC3B7170240DC4324
:10153000918393F6F700B707002093878703B69748
:1015400094231C43B3D7D7001CC38280544250421B
:10155000C167C982BD8A7D8E9387260085CABD4634
:101560006389D702C1466389D702C5458146639323
:10157000B700C1470DE63746024003260680418A80
:1015800015C637167A00130606202DA08146C947D6
:10159000D5B78546B547F9BF8146BD47E1BF371688
:1015A000024050429315E600E3DD05FC37163D008E
:1015B00013060690B387C7021CC3A5DA1C438583B4
:1015C000A5B701A097F1FF1F9381C13617710020C5
:1015D000130141A3172500001305C53E97F5FF1F12
:1015E000938545A21386818163FAC5008322050095
:1015F00023A0550011059105E3EAC5FE13858181FD
:10160000971500209385457F6377B500232005005B
:101610001105E36DB5FEFD42739002BCAD427390BF
:101620004280B7620000938282087390023097F282
:10163000FFFF9382629D93E2320073905230EFF08D
:10164000DFDC970200009382A2C67390123473000D
:101650002030EFE2FFB9B727014093870740631EB0
:10166000F500854513050020EF0090018145130525
:101670000020EF00F0006FE0FFB9B737014093871B
:101680000780E31AF5FE854513050040EF00407F13
:10169000814513050040F1BF5C413707F1E01307B6
:1016A000F7EF944D7D8F9C41D58FD44DD58FD4418C
:1016B000A206D58FD98F5CC11C4537F7F1FF130700
:1016C000D77FD4457D8F9C49D58F94458606D58F8D
:1016D000D98F1CC55C55370710FF7D177D8FDC291E
:1016E000FD1793F7F70FD207D98F5CD58280854716
:1016F00023200500232205002324050023260500BE
:10170000232805005CA982801C4589C593E7170042
:101710001CC58280F99BEDBF1C4589C593E7071066
:101720001CC5828093F7F7EFE5BF1C4593E7870060
:101730001CC5828008450D81058982801C4593E780
:1017400047001CC582800845098105898280A5471C
:1017500063F7B7048D47138765FF3307F702032844
:10176000C5009D47B397E70093C7F7FFB3F707019D
:10177000B396E600DD8E54C5994763E3C7049547E9
:101780007D163306F6025859FD47B397C70093C735
:10179000F7FFF98F3396C5005D8E50D982800D47D3
:1017A0003387E502032805019D47B397E70093C7F8
:1017B000F7FFB3F70701B396E600DD8E14C96DBFDE
:1017C000B14763E2C702954765163306F60218591A
:1017D000FD47B397C70093C7F7FFF98F3396C5004E
:1017E0005D8E10D9828095474D163306F602585506
:1017F000FD47B397C70093C7F7FFF98FB395C500AF
:10180000DD8D4CD582801C4591C537071000D98FDE
:101810001CC582803707F0FF7D17F98FD5BF5C416B
:1018200091C537070004D98F5CC18280370700FC5F
:101830007D17F98FD5BFEFE2BF9B01112A842304E6
:101840000100A5441C8463F9F40423040100A546A7
:1018500021461C8463FDF6062315010023040100C4
:1018600095461C8463FFF60C38853C8599460D46E9
:10187000B3F7D702056513050580B3D7C702335701
:10188000D702BA97C207C1837C853C8505611D8D4F
:10189000420541856FE01F981C4493E787001CC4F4
:1018A0002285493D75FD1C4493E747001CC42285F1
:1018B000593D75FD78441C8414108607B69723960D
:1018C000E7FE1C84850793F7F70F5C84A5BFA3048C
:1018D00001009C846378F6001C84850793F7F70F5A
:1018E0005C8485BF98849C840C1006078507860756
:1018F0002E97AE970357C7FE83D7C7FE63FDE70257
:101900009C848607AE9783D7C7FE7C859C84988489
:1019100085078607AE9783D5C7FE93171700181063
:10192000BA972396B7FE9C8438850C1085078607E6
:10193000AE972396E7FE9C84850793F7F70FDC8428
:1019400049BF1C841010388589078607B29783D752
:10195000C7FEBA97C207C1837C851C84850793F7AD
:10196000F70F5C84FDBD1C4141677917F98F1CC1DD
:10197000232005002322050023240500B707024089
:1019800023260500138787006317E500D8431367F4
:10199000F700D8C382801387C7016316E500D843D8
:1019A0001367070FFDB7138707036318E500D843D4
:1019B0008566938606F0558FE9BF13874704631544
:1019C000E500D843BD66C5BF138787056316E500EC
:1019D000D843B7060F00C5B71387C7066316E500DF
:1019E000D843B706F000C1BF138707086316E500A8
:1019F000D843B706000FC1B7138787406319E500C6
:101A000003A747401367F70023A2E74082801387AC
:101A1000C7416317E50003A747401367070FEDB7FA
:101A200093870743631BF500B707024003A74740AE
:101A30008566938606F0558FC1BFB70702401387AE
:101A400047446316E50003A74740BD66EDB713871B
:101A500087456317E50003A74740B7060F00E1BFBE
:101A60001387C7466317E50003A74740B706F00092
:101A7000D9B7138707486317E50003A74740B706A0
:101A8000000F55BF138707496319E50003A7474DAA
:101A90001367F70023AAE74C82801387074A63176E
:101AA000E50003A7474D1367070FEDB71387074BF3
:101AB0006319E50003A7474D8566938606F0558FA9
:101AC000D1BF1387074CE319E5FC03A7474DBD665B
:101AD000FDB71C4161773D0794517D8F9C45D58FA3
:101AE0009449D58FD449D58F944DD58FD44DD58F6A
:101AF000D451D58F9455D58FD98F1CC1DC455CC18D
:101B00009C411CC5DC415CC582802320050023224A
:101B10000500232405002326050023280500232A89
:101B20000500232C0500232E050023200502232277
:101B300005022324050282801C4189C593E7170012
:101B40001CC1828041677917F98FDDBF1C4101C636
:101B5000DD8D0CC1828093C5F5FFFD8DDDBF931730
:101B6000350063DA0700B707024083A707407D8D81
:101B70003335A00082809317250063D70700B7078D
:101B8000024083A7074DE5B7B70702409C43C5B79E
:101B90009317350063D70700B707024023A2A74079
:101BA00082809317250063D70700B707024023AA56
:101BB000A74C8280B7070240C8C38280EFE24FE3A0
:101BC000793F6FE02FE5EFE2AFE2D9376FE08FE4C6
:101BD0009C4513F7070113F8F70001C7D841336894
:101BE000E8008E2113F7F50F39C318418146854E61
:101BF0003D4F930F800293028004214E3396DE0006
:101C0000B3F8C500631116039398260033131F0120
:101C10001343F3FF3377E300B318180133E7E80009
:101C2000639FF70550C98506E39AC6FD18C11307DF
:101C3000F00F6375B70454412146854E3D4F930F15
:101C4000800293028004414EB398CE0033F7150111
:101C50006392E8021317260001173313EF001343B2
:101C6000F3FFB376D3003317E800D98E639DF701F5
:101C7000232A15010506E319C6FD54C18280E394A9
:101C800057FA10C94DB7E39757FE23281501DDB762
:101C9000FD571EA189475CC191471CC58280B716BC
:101CA0000240DC4251777D17F98F5D8DC8C282807A
:101CB000371702405C439146B18B6385D700A1463C
:101CC0006382D706B7177A00938707201CC137169F
:101CD00002405C42370700201307070C9183BD8B3D
:101CE000BA9794231C41B3D7D7005CC15442A18258
:101CF0009D8ABA969422B3D6D70014C55442AD82B9
:101D00009D8A36971823B3D7E7005CC558423983BC
:101D1000937637001387418036971823B3D7E702AD
:101D20001CC982805C435843C166C983758FB7F66E
:101D3000FF1F83A6C670BD8B8907139616016348E3
:101D40000600C54601466392D702C94739A88946AD
:101D5000638FD702BD46638ED702C146638ED7021A
:101D6000C54601466393D700C1471DEF3747024080
:101D700003270780418B05C737177A001307072011
:101D8000B307F7021CC121D61C41858381B70146E8
:101D90006DBF0546B547D1BF0146BD47F9B73717F7
:101DA0003D0013070790E9BFB7150240D8559316B9
:101DB000F700D85563DF060411833D8B93061700A7
:101DC00037177A00130707203357D70218C1D455A5
:101DD000A182BD8A8DE295463307D702058318C1DB
:101DE00037170240585714413D8B050733D7E60299
:101DF00018C1184171B785456394B600E546E9BF3F
:101E0000BD456396B600D1463387E602C9BF890651
:101E1000E5BF3D8B9306170037177A00130707209D
:101E20003357D702F1B799C5371702405C4B5D8D28
:101E300048CB8280B7170240D84B1345F5FF798D08
:101E4000C8CB828099C5371702401C4F5D8D08CFE3
:101E50008280B7170240984F1345F5FF798D88CFE0
:101E6000828099C5371702405C4F5D8D48CF8280D4
:101E7000B7170240D84F1345F5FF798DC8CF828040
:101E800099C5371702405C475D8D48C78280B717F8
:101E90000240D8471345F5FF798DC8C7828099C5A0
:101EA000371702401C4B5D8D08CB8280B71702406C
:101EB000984B1345F5FF798D88CB8280B717024088
:101EC000D857B70600F9FD16758FD8D7D8576205D1
:101ED000598DC8D78280B7170240D857B70600F887
:101EE000FD16758FD8D7D8576E05598DC8D7828003
:101EF000B7170240D857B70600D0FD16758FD8D750
:101F0000D8577205598DC8D7828009C93717024042
:101F10005C57B7060040D58F5CD78280B716024069
:101F2000DC56370700C07D17F98FDCD68280371763
:101F300002405C577E05860785835CD75C575D8DC4
:101F400048D78280EFE2CFAAB7370140138707C096
:101F5000631DE5000564854513050480153781453B
:101F600013050480313F6FE0EFAA938707406318A1
:101F7000F50085450965293781450965E5B7B757F6
:101F80000140138707C0631AE5008545370508003F
:101F9000C53D814537050800F1B7631AF500854551
:101FA00037051000F13D81453705100065BFB707C3
:101FB00000406319F50085450545D5358145054542
:101FC000F93D55B7938707406318F50085450945E6
:101FD000F93581450945EDB7B717004013870780EC
:101FE0006318E500854511455D3D81451145C9BF33
:101FF000138707C06318E500854521454D358145A8
:1020000021457DBF6318F50085454145493D814522
:1020100041457DB793870740E317F5F485451305E0
:102020000002B53D81451305000259BF37F7FF1F78
:10203000032747701E21914611833D8BC2077117FC
:10204000C18363E6E60237370140930607C0630E9B
:10205000D50013070740630AE50037570140930690
:1020600007C06304D500631AE5000967D98F3737C5
:102070000140130707C06302E50437070040630E01
:10208000E50213070740630AE5023717004093068D
:1020900007806304D502130707C06300E5023737E2
:1020A000014013070740630AE500375701409306D4
:1020B00007C06304D5006318E50093F7F7F8BA2169
:1020C000C207C183D98F37170040630CE50013079F
:1020D00007406308E50093F7F7CFFA21C207C183F1
:1020E000D98F1EA1DE215EB59E211EB5B7370140F6
:1020F000138707C0630EE50093870740630AF50066
:10210000B7570140138707C06304E5006314F50067
:102110009C251EB985475EA982801E31922103D875
:102120002500C207C183F99BC207C1831EB11E31BE
:1021300056211A2DC207C183420741831377C7F87E
:10214000518F9225F59BC20633660601D18F373633
:102150000140130806C0C182630E05011306064044
:10216000630AC50037560140130806C06304050121
:102170006310C502B225DD9B03D8E500D18FD221C3
:10218000ED9B93F6F6CFD18FD22533660601D18E23
:1021900056A11AADFA215AB91EB182801E31657757
:1021A0001307F7CFC207C183BD9BC207C1831EB10E
:1021B0001E31562103D88500C20713960601162D3D
:1021C000C18393F7F7FD758F96214182A206558F43
:1021D000B62142074183B3E606019206D58FB73692
:1021E0000140C207138806C0C183630E05019386B0
:1021F0000640630AD500B7560140138806C0630441
:102200000501631ED502B62593F7F7F703D8C5007D
:102210009206D58FD621C207C183920693F7F7FBAA
:10222000D58FFD769386F63FF18EF225C207C183E6
:10223000336606010A06D18E13960601418252A129
:102240001AADFA211ABD1EB18280FD575EA123107E
:1022500005002313050023110500230405008280D7
:102260002310050023110500231205002313050088
:102270002314050023150500231605002317050068
:1022800082801E2189C593E717001EA18280C207A4
:10229000C183F99BC207C183CDBFEFD27FF5162959
:1022A000F577FD17F58FF621DA257971D58F1EA9FF
:1022B0005625FD779387379FF58FD6212A842EC622
:1022C000D58F9625D58FB625D58F5EA55E29C207F9
:1022D000C18393F7F7CFD98F5EA96808EFF05F9DB0
:1022E000B747014093870780B245631EF402A257A7
:1022F0006547B387E7029841930640060A07B3D7BC
:10230000E70233D7D702B3F7D702120792079387B2
:102310002703B3D7D702BD8BD98FC207C1831EA4B1
:1023200045616FD03FEF9257E1B791C55E250967D0
:10233000D98F5EA582805A25F977FD17F98FD5BF11
:1023400093F5F51F4EA182800A216D8D3335A000D3
:102350008280B707002083A7071337177A00130777
:102360000720B3D7E70293F7F70F2381F184130710
:10237000803EB387E7022390F1848280B7F700E0C4
:10238000D8438146799BD8C303C721843306A7026B
:1023900090CBD4CB98431367070198C39843136736
:1023A000170298C3D843058B75DF9843799B98C370
:1023B0008280EFD2FFE32A84116501118545110562
:1023C000EFF05FA8930700207C82371501408D470E
:1023D0003EC44C00E147130505803EC6EFF04FFFB9
:1023E00022C837440140B70708000C0813050480D1
:1023F0003ECC02CA231E01004D35854513050480DD
:102400002D3705616FD01FE1EFD2FFDCB7440140EB
:10241000AE893289014493840480634524014A854E
:102420006FD0BFDE930500042685393F65DDB38795
:1024300089008385070026850504C205C181093707
:10244000E9BF138781801C43B7360020938646DF9F
:102450003E95636BD500B78600209386068063E5C2
:10246000A60008C33E858280FD57EDBFB3C7A50017
:102470008D8B3307C50081E78D4763EDC700AA87C1
:10248000637EE508942185078505A38FD7FEE3EBDE
:10249000E7FE828093763500AA8789CA9421850752
:1024A0008505A38FD7FE93F63700C5BF9376C7FF88
:1024B000138606FE63F0C70683A3050083A24500CA
:1024C00083AF850003AFC50083AE050103AE4501B0
:1024D00003A3850183A8C5019385450223A0770046
:1024E00003A8C5FF23A2570023A4F70123A6E701F1
:1024F00023A8D70123AAC70123AC670023AE170185
:102500009387470223AE07FF75B790419107910566
:1025100023AEC7FEE3EBD7FEE3E6E7F68280397130
:102520003EDA2ED232D436D63AD842DC46DE938713
:10253000C18022CC804326CA06CEAA8409C41C4C82
:1025400099E32285ED290C4454102686228536C64F
:10255000EF007012F2406244D24421618280011186
:1025600026CA4AC806CE22CC4EC652C4AA842E8998
:1025700001C51C4D91E3E1219C4C804499E32685E3
:102580007D29971700009387273C631BF402C04006
:102590005E24A18BB1C71C48A1C7FD59294A1C4420
:1025A00083450900FD17B1E91CC463DD07062286D7
:1025B000A94526856120FD576308F502294535A008
:1025C000971700009387473A6314F4008044C9B713
:1025D0009717000093874735E31CF4FAC0444DBFBA
:1025E000A2852685112A55D97D55F2406244D244F0
:1025F0004249B249224A056182801CC4050963D759
:102600000700184C63CAE700638845011C40138724
:10261000170018C08CA361B7228626850520E31019
:1026200035F9D9B71C401387170018C0294798A35C
:1026300071B79387C180AA85884315B7011122CC51
:1026400026CA4AC806CE4EC6AA842E89328401C53F
:102650001C4D91E3ED26971700009387E72E631733
:10266000F406C0401C4C1CC45E24A18BC1C31C4892
:10267000B5CF1C4808409379F90F1379F90F1D8DD8
:102680005C486346F500A2852685692C25E51C4437
:102690000505FD171CC41C401387170018C02380B4
:1026A00037015C486388A7005E24858B81CBA947EE
:1026B0006316F900A2852685B5240DEDF24062442B
:1026C0004A85D2444249B249056182809717000089
:1026D000938787296314F400804469B79717000033
:1026E00093878724E310F4F8C044ADBFA285268504
:1026F000212041D17D59D9B741119387C18026C28C
:10270000844322C44AC006C62A892E8489C49C4CAC
:1027100099E326852D26971700009387E722631BF0
:10272000F402C0400317C40093170701C18393F656
:102730008700ADEA93F6070195EEA5472320F9003F
:10274000136707045AA47D55B240224492440249BB
:102750004101828097170000938707216314F400DA
:102760008044C9B7971700009387071CE31CF4FA4D
:10277000C0444DBF918B9DC34C5889C993074404F5
:102780006384F5004A853123232A04025E24232230
:10279000040093F7B7FD5EA41C481CC05E2493E7B9
:1027A00087005EA41C4899EB5E241307002093F772
:1027B00007286385E700A2854A85A1215E2413F7D7
:1027C00017001DC35C4823240400B307F0401CCC51
:1027D0001C480145B5FB8317C40013F707082DD724
:1027E00093E707045EA485B7898B014791E35848B6
:1027F00018C4F9BFDE25011122CC26CA06CE4AC86C
:102800004EC613F78700AA842E8479EBD841634D16
:10281000E000B841634AE0000145F2406244D2441E
:102820004249B2490561828058547DD703A904000A
:102830009396370123A0040063DB060670485E24EC
:10284000918B99C75C401D8E5C5899C33C401D8E8E
:102850005C540C50814626858297FD575A24631D8F
:10286000F5009440F54763E8D706B7074020850791
:10287000B3D7D700858BA5C31C48232204001CC0F6
:102880009317370163D80700FD576314F5009C4088
:1028900091E368C84C5823A02401BDDD930744048C
:1028A0006384F5002685F526232A0402B5B70C506B
:1028B0000146854626850297FD572A86E311F5F8DD
:1028C0009C40B5DF75476385E70059476393E7048C
:1028D00023A0240191B7136707045AA47D5535BF7F
:1028E00083A90501E38A09F203A905008D8B23A0C2
:1028F000350133093941014791E3D84918C4E35DF3
:1029000020F11C540C50CA864E8626858297634758
:10291000A0005E2493E707045EA4C9B7AA9933090F
:10292000A940F1BF9C49B9CF011122CC06CE2A841F
:1029300011C51C4D81E72EC61922B245971700001C
:1029400093878700639BF5004C408397C50095C72C
:1029500022856244F240056171BD9717000093879C
:10296000A7006394F5000C44CDB797170000938738
:10297000A7FBE39CF5FC4C44C9BFF240624401450F
:102980000561828001458280411122C406C62A84E5
:102990004EA572A52320050023220500232405004F
:1029A0002322050623280500232A0500232C0500E1
:1029B000214681451305C505EFD09F869717000076
:1029C0009387E7B15CD097170000938707B41CD4B6
:1029D000971700009387E7B75CD497170000938799
:1029E00047BA00D01CD8B2402244410182809705EA
:1029F0000000938565F3A9A2411126C21306800643
:102A00009384F5FFB384C4024AC02E8922C406C64B
:102A1000938544071D262A8401CD23200500232207
:102A20002501310508C4138684068145EFD04FFF88
:102A30002285B240224492440249410182801C4DC9
:102A4000ADE3411106C622C497070000938767FAD9
:102A50001CD5938741819C43232405042326050428
:102A6000232805046314F50085471CCD2A841D28FE
:102A700048C02285052808C422852D2048C4484026
:102A800001469145113708440546A545F53D4844A2
:102A90000946C945D53D85471CCCB2402244410179
:102AA0008280828041119387418126C284434AC03B
:102AB00006C69C4C22C42A8999E32685493793840B
:102AC00084048044DC40FD1763D607009C40B9CFE6
:102AD0008440C5BF0317C40039E7C17785072322A7
:102AE00004062320040023220400232404005CC4E1
:102AF00023280400232A0400232C040021468145B6
:102B00001305C405EFD0CFF1232A0402232C0402BD
:102B100023240404232604042285B2402244924440
:102B20000249410182801304840671BF91454A85A0
:102B3000E13588C051FDB1472320F9000144E9BFC8
:102B4000797122D44AD052CC56CA5AC85EC606D62B
:102B500026D24ECE2A8AAE8A130485040149054B3B
:102B6000FD5B09ECB25022544A8592540259F24955
:102B7000624AD24A424BB24B456182800444832967
:102B80004400FD1963D409000040E1BFDE24637BEB
:102B9000FB008397E40063877701A6855285829ABC
:102BA0003369A90093848406E9BF1971A6DAAE845B
:102BB0008395E500A2DC86DE328463DB0500DE243B
:102BC00023A0060093F7070885E7930700401DA0A0
:102BD000300836C6EF007021B246E34205FE724768
:102BE000BD67F98F7977BA9793B717009CC2F1BF89
:102BF000930700041CC0F6506654D6540145096181
:102C00008280DE25011122CC06CE26CA4AC8898BD5
:102C10002E8489CF930774041CC01CC885475CC8E8
:102C2000F2406244D244424905618280740030001F
:102C3000AA84A53FA2452A892685012219E983177E
:102C4000C40013F7072069FFF19B93E727005EA4F8
:102C5000D1B7970700009387C7D99CD45E2408C0DA
:102C600008C893E707085EA4A2475CC8B24781CFB3
:102C70008315E4002685EF00701A11C55E24F19BD0
:102C800093E717005EA45E243369F900231624013C
:102C900041BFDDC183A7C5FF411122C406C626C2BC
:102CA0001384C5FF63D307003E94AA84EF00D01EAF
:102CB000938741849C4381EF2322040023A28184D3
:102CC0002244B2402685924441016F00101D637E6C
:102CD000F40014403307D4006396E7009843DC43C4
:102CE000369718C05CC0D9BFBA87D84319C3E37DF3
:102CF000E4FE94433386D700631F86001040B296EB
:102D000094C33386D700E31DC7FA10435843B296E5
:102D100094C3D8C375B76375C400B1479CC04DB7A1
:102D20001040B306C4006316D70014435843B2964C
:102D300014C058C0C0C369B78280011126CA9384E9
:102D40003500F19806CE22CC4AC84EC6A104B14740
:102D500063F3F404B14463E2B4042A89EF00D013AE
:102D60009387418498433A8439E0938781849C43D4
:102D700091E781454A850D2F23A4A184A6854A8524
:102D80002527FD5963193507B1472320F9004A85E6
:102D9000EF00B01029A0E3D004FCB1471CC10145ED
:102DA000F2406244D2444249B249056182801C40EB
:102DB000858F63CF0702AD4663F6F6001CC03E94D4
:102DC00004C031A05C406313870223A2F1844A85CA
:102DD000EF00B00C1305B40093074400619933076A
:102DE000F5405DDF3A94898F1CC05DBF5CC3C5B7F9
:102DF0002287404095BF130435007198E30285FC9B
:102E0000B305A4404A854D25E31C35FBB5BF1C46E0
:102E1000FD171CC663DA0700184E63C5E700A94713
:102E20006394F5006FF09F811C422E851387170075
:102E300018C28CA38280011122CC26CA4AC84EC671
:102E400052C406CE2A89AE893284B304D6007D5A94
:102E500063149400014501A80C204E864A85453F25
:102E60000504E31745FFF2406244D2444249B249A7
:102E7000224A05618280357122CD26CB4AC94EC7D0
:102E800006CF52C556C35AC1DEDEE2DCE6DAAA89B5
:102E9000AE843289368409C51C4D99E3EFF03FBA00
:102EA00097170000938747AA6397F40C83A44900FF
:102EB000DE24A18BFDC39C48EDC393070002A3044D
:102EC000F1029307000302D22305F10222C6930BFD
:102ED0005002971A0000938A2AAB054C294B4A846A
:102EE0001C2099C3639E770DB30C2441638D0C00A5
:102EF000E6864A86A6854E853D3FFD57630FF51C45
:102F00009256E69636D21C206389071CFD5713099A
:102F1000140002C802CE3ECA02CCA309010482D426
:102F20008345090015465685A12F13041900C24791
:102F300051E913F7070109C713070002A309E104C8
:102F400013F7870009C71307B002A309E1048346FA
:102F500009001307A002638FE606F2474A84814600
:102F60002546182093051400130707FD6377E60A2A
:102F7000B5CA3ECE85A8971700009387E79E639554
:102F8000F40083A489002DB7971700009387C79991
:102F9000E390F4F283A4C90021BFA6854E85EFF02B
:102FA000AFF501DD7D55FA406A44DA444A49BA4931
:102FB0002A4A9A4A0A4BF65B665CD65C0D618280AF
:102FC000050439BF330555413315AC00C98F3EC8E0
:102FD0002289B9B7324793064700184336C663477C
:102FE00007023ACE18209307E002631DF704183059
:102FF0009307A002631BF702B24709041387470037
:103000009C433AC663C107023ECA2DA83307E0407D
:1030100093E727003ACE3EC8F1B7B38767038546EA
:103020002E84BA973DBFFD57C5B7050402CA814635
:1030300081472546182093051400130707FD637484
:10304000E606F9F20C200D4617150000130545940D
:10305000052D11CD97170000938787931D8D93073A
:103060000004B397A700424505045D8D2AC80C20D3
:103070001946171500001305E591130914002304E0
:10308000B102FD2B35C197D7FFFF9387A7F795E7CF
:103090004247B2471377071009CF91073EC69257B0
:1030A000D2973ED22DBDB387670385462E84BA974B
:1030B00051B79D07E19BA107D5B77800970600009F
:1030C0009386A6D726860C084E8597000000E70059
:1030D0000000FD572A8AE314F5FCDE2493F7070469
:1030E000E39207EC1255C1B578009706000093866D
:1030F000C6D426860C084E85012AE1BF797156CACE
:103100009C49BA8A984522D426D24ECE52CC06D6B5
:103110004AD05AC85EC6AA892E84B284368A63D33E
:10312000E700BA879CC00347340419C385079CC0D5
:103130001C4093F7070281C79C4089079CC0032964
:10314000040013796900631A0900130B9401FD5BF5
:103150005C449840998F634CF9041C4083463404C6
:1031600093F70702B336D000A5EB13063404D285DB
:103170004E85829AFD576303F5041C401146984022
:10318000998B544481446397C700B384E64063D36A
:10319000040081441C4418486354F700998FBE947E
:1031A000014969047D5B63982405014509A88546AA
:1031B0005A86D2854E85829A631E75017D55B2501E
:1031C000225492540259F249624AD24A424BB24BBB
:1031D000456182800509ADBF3307D40013060003A3
:1031E000A301C7040347540493871600A2978906D6
:1031F000A381E7049DBF85462286D2854E85829AAB
:10320000E30E65FB050945B7797122D426D24AD071
:103210004ECE06D652CC56CA5AC8B689942D9307BC
:1032200090063289AA842E8413863504638DF602B3
:1032300063E2D706930780056385F61863EDD70030
:10324000638D062093073004638EF60A930A2404E4
:103250002301D404C9A0930730066385F60A9307B7
:103260004006E395F6FE1C40084393F607089305D5
:103270004500C5C61C410CC363D807001307D00224
:10328000B307F040A301E40497060000938606719B
:10329000294765A8930700076381F61663E5D702FF
:1032A0009307E0066388F6189307F006E390F6FAB2
:1032B0000C401C4313F805081385470063070806F4
:1032C00008C39C4385A893075007E383F6FE930742
:1032D00080076388F61293073007E399F6F61C43DC
:1032E000D04181459386470014C383AA07005685C1
:1032F000412E01C53305554148C05C401CC8A3019F
:10330000040461A81C43930A2404938647009C4349
:1033100014C32301F4048547D5B793F607041C4171
:103320000CC3B9DAC207C18781BF93F5050408C38E
:10333000C9D99E231307F0066386E60E97060000A0
:103340009386C6652947A30104044C400CC463C599
:10335000050008406D9908C099E3B28A89CDB28A08
:10336000B3F5E702FD1AB6958C212380BA00B3D5D8
:10337000E70263FFE70AA147631EF7001C40858B45
:1033800091CB58401C4863C7E70093070003A38F05
:10339000FAFEFD1A3306564110C84E87CA867000E1
:1033A000A2852685A13B7D5A631D450B7D55B250F4
:1033B000225492540259F249624AD24A424B456120
:1033C0008280A382D504970600009386265D0C4078
:1033D000084313F805081C411105630D080208C3D2
:1033E00013F7150001C793E505020CC04147A1FF83
:1033F0000C4093F5F5FD0CC0B9B79C4193E707026B
:103400009CC193078007A302F404970600009386EB
:10341000265A75BF13F8050408C3E30308FCC20766
:10342000C1837DBF9706000093864657214721BF81
:10343000AE873DB794411C43CC4913F80608138569
:1034400047006306080008C39C438CC339A008C327
:1034500093F606049C43F5DA8EA323280400B28A6F
:103460002DBF14485686CA8526858299E30045F506
:103470001C40898B8DE7B2474844E35AF5F23E85FC
:103480003DB785465686CA8526858299E30065F351
:10349000050A5C443247998FE345FAFEE9BF014AC9
:1034A000930A94017D5BF5B7411122C42A842E85CD
:1034B0009707002023A0079406C6EFE09FF8FD576A
:1034C0006319F500970700209387C7929C4391C327
:1034D0001CC0B240224441018280411122C42E848A
:1034E0008395E50006C65D2A634905007C48AA97D6
:1034F0007CC8B2402244410182805E247D777D17E2
:10350000F98F5EA4FDB7DE25011122CC26CA4AC878
:103510004EC606CE93F70710AA842E843289B68948
:1035200091C78395E500894601460D225E247D778B
:103530007D17F98F5EA48315E4006244F240CE86C5
:103540004A86B24942492685D244056125A84111DF
:1035500022C42E848395E50006C6CD28FD575A2443
:10356000631AF500FD77FD17F98F5EA4B24022447F
:10357000410182808567D98F5EA468C8C5BF8395E5
:10358000E50025A8411122C42A842E85B2853686FD
:103590009707002023A0078606C6EFE0FFE6FD5749
:1035A0006319F500970700209387C7849C4391C354
:1035B0001CC0B240224441018280411122C42A84AD
:1035C0002E859707002023A7078206C61122FD57E4
:1035D0006319F500970700209387C7819C4391C327
:1035E0001CC0B240224441018280411122C42A847D
:1035F0002E85B28597F7FF1F23AE077E06C6CD2026
:10360000FD576319F50097F7FF1F9387A77E9C432B
:1036100091C31CC0B240224441018280411122C4A6
:103620002A842E8597F7FF1F23A6077C06C6C9208C
:10363000FD576319F50097F7FF1F9387A77B9C43FE
:1036400091C31CC0B240224441018280411122C476
:103650002A842E85B285368697F7FF1F23AC07781C
:1036600006C67928FD576319F50097F7FF1F938762
:1036700067789C4391C31CC0B240224441018280C0
:1036800093F5F50F2A966314C500014582801C212D
:10369000E38EB7FE0505C5BF82808280411122C43A
:1036A0002A842E85B285368697F7FF1F23A40774D8
:1036B00006C6B928FD576319F50097F7FF1F9387D2
:1036C00067739C4391C31CC0B24022444101828075
:1036D0009307800517F7FF1F232EF7707D55828013
:1036E0009307800517F7FF1F2326F7707D5582800B
:1036F0009307800517F7FF1F232EF76E0145828081
:103700009307800517F7FF1F2326F76E7D558280EC
:103710009307800517F7FF1F232EF76C7D558280D6
:10372000FE0F0000340E00008E0E0000E60E0000BA
:103730008E0E0000C40D0000120C00008E0E000062
:103740000C0E0000220E0000F80F0000CE0D00004D
:10375000340C00008A0C0000DC0C0000F60C0000A9
:10376000F60C00003C0D00004C0D00000D0A5B46FD
:103770006F72636520496E6A6563745D20434647D6
:10378000523A203078253038582C20434E54523A43
:103790002025640D0A00000053797374656D20695B
:1037A0006E697469616C697A65642E20436865632B
:1037B0006B696E672041444320616E6420444D4133
:1037C0002E2E2E0D0000000055534220456E756DC3
:1037D0003A2025642C20444D4120436F756E743A85
:1037E0002025642C20466C61672048616C663A2075
:1037F00025642C20466C61672046756C6C3A202548
:10380000640D0A0041444331205244415441523A2C
:10381000203078253038580D0A000000434E5452AD
:103820003A2025642C20494E5446523A20307825BF
:103830003038580D0A000000444D4120486561723F
:1038400074626561743A202564200D0A000000004E
:1038500009023C0001010080320904000006FFFF5C
:10386000FF0007050102400000070581024000003B
:103870000705030240000007058402400000070519
:1038800005024000000705860240000009023C00D6
:1038900001010080320904000006FFFFFF00070558
:1038A0000102000200070581020002000705030271
:1038B000000200070584020002000705050200025D
:1038C000000705860200020012010002FFFFFF4010
:1038D000861A375501000102030100000E0377002C
:1038E000630068002E0063006E00000012034300B6
:1038F00048003300320056003300300078000000EA
:103900000A060002FFFFFF4001000000160330001E
:103910003100320033003400350036003700380003
:10392000390000000000000000000000000000005E
:103930000000000000000000000000000000000087
:103940000000000000000000000000000000000077
:103950000000000000000000000000000000000067
:103960000000000000000000000000000000000057
:103970000000000000000000000000000000000047
:1039800000000000232D302B20000000686C4C004C
:103990006566674546470000303132333435363787
:1039A000383941424344454600000000303132334B
:1039B000343536373839616263646566000000006B
:1039C000000000000000000000AAAAAAAAAAAAAA51
:1039D000AAEEEEEEEEEEEEEEEEFEFFFFFFFFFFFFD5
:1039E000FFFFFFFFFF7FBFDFEFF7FBFDFC7EBFDFC9
:1039F000EFF7FBFD7E00000000000000000000006B
:103A0000010203040607080909070000000000007E
:103A100000000000000000000000000000000000A6
:103A20000000000000000000000000000000000096
:103A30000000000000000000000000000000000086
:103A40000000000009070000000000000000000066
:103A50000000000000000000000000000000000066
:103A60000000000000000000000000000000000056
:103A70000000000000000000000000000000000046
:103A80000000000001020304010203040607080904
:103A900000000000443900006439000024390000AF
:103AA0000000000000000000000000000000000016
:103AB0000000000000000000000000000000000006
:103AC00000000000000000000000000000000000F6
:103AD00000000000000000000000000000000000E6
:103AE00000000000000000000000000000000000D6
:103AF00000D8B80502040608F42D0020D0000020EC
:083B000004030904D0000020B9
:00000001FF
